:020000040800F2
:1000000048330020ED0100080B2D0008032D0008E7
:10001000072D0008350D0008B5420008000000005B
:10002000000000000000000000000000AD2F0008EC
:10003000390D0008000000000D2D0008AF2F00084A
:10004000070200080702000807020008070200086C
:10005000070200080702000807020008070200085C
:10006000070200080702000807020008070200084C
:10007000070200080702000807020008070200083C
:10008000070200080702000807020008070200082C
:10009000070200080702000807020008070200081C
:1000A000070200080702000807020008070200080C
:1000B00007020008070200080702000807020008FC
:1000C00007020008070200080702000807020008EC
:1000D000070200086542000807020008070200083E
:1000E00007020008070200080702000807020008CC
:1000F00007020008070200080702000807020008BC
:1001000007020008070200080702000807020008AB
:10011000070200080702000807020008070200089B
:10012000070200080702000807020008070200088B
:10013000070200080702000807020008070200087B
:10014000070200080702000807020008070200086B
:10015000070200080702000807020008070200085B
:10016000070200080702000807020008070200084B
:10017000070200080702000807020008070200083B
:10018000070200080702000807020008070200082B
:10019000070200080000000007020008070200082C
:1001A000070200080702000807020008070200080B
:1001B00007020008070200080702000807020008FB
:1001C00007020008070200080702000807020008EB
:1001D0000702000807020008DFF80CD000F0D6FB89
:1001E00000480047DD520008483300200648804799
:1001F00006480047FEE7FEE7FEE7FEE7FEE7FEE70C
:10020000FEE7FEE7FEE7FEE7B92F0008D901000888
:100210002DE9F05F0546002092469B46884606463B
:10022000814640241BE0284641464746224600F0CE
:10023000B6F953465A46C01A914110D31146184692
:10024000224600F09DF92D1A67EB01084F46224621
:100250000120002100F094F917EB00094E41201E07
:10026000A4F10104DFDC484631462A464346BDE896
:10027000F09FD2B201E000F8012B491EFBD270477B
:100280000022F6E710B513460A4604461946FFF762
:10029000F0FF204610BD00000FB400B58DB010A9CE
:1002A00009900B9000914FF0FF300A9000200C90C5
:1002B00005480690054807906A4609A80F9900F07E
:1002C00093F90DB05DF814FB05060008230600083D
:1002D0002DE9FF5F1D464FF0FF3BD5E901469146F2
:1002E0005F464FF00008A9697F1C01988847296A7A
:1002F000824688470028F6D1BAF1FF3F0CD024F49B
:10030000C064002E19DD600614D5BAF12B0F09D098
:10031000BAF12D0F0ED103E0584604B0BDE8F09FAE
:1003200044F48064A9697F1C01988847761E824640
:10033000002E02DDBAF1300F03D0B9F1000F26D044
:1003400032E0A969761E44F400747F1C0198884746
:100350008246002E05DDBAF1780F06D0BAF1580FAB
:1003600003D0B9F1000F10D01EE0B9F1000F02D098
:10037000B9F1100F18D1A969761E24F400747F1CFE
:10038000019888478246102002E0082000E00A20F9
:10039000814609E008FB0908A969761E44F4007447
:1003A0007F1C019888478246002E05DD494650464D
:1003B00000F005F90028EDDAE96901988847A00501
:1003C00002D46FF00100A8E7E00725D1600613D53D
:1003D000600502D5C8F1000000E0404629680A1D0A
:1003E0002A600968220501D5087015E0220701D5A9
:1003F000088011E008600FE02868011D296000688E
:10040000210502D580F8008006E0210702D5A0F87A
:10041000008001E0C0F8008038467EE72DE9FE4FFD
:1004200081EA030404F0004421F0004100944FF0FD
:10043000000B23F0004350EA01045ED052EA0304AB
:100440005BD0C3F30A54C1F30A552C44A4F2F3342D
:100450000194A0FB0254C1F3130141F48011C3F3D2
:10046000130343F4801301FB024400FB034E840A90
:10047000970A44EA815447EA8357A4FB0768029528
:100480008D0A05FB07854FEA932C04FB0C542705C6
:10049000029D4FEA065847EA1637B5EB08056EEBA2
:1004A000070C870E920E47EA811742EA8312A7FBD8
:1004B0000201B6EB0B0164EB00042B0D43EA0C3395
:1004C0005E1844EB1C50DA465146E7FB0201C5F3C7
:1004D00013044FEA0B3343EA14534FEA0432019CEE
:1004E00043EA0603A4F10C040294009CCDE900B495
:1004F00000F0B7F803B0BDE8F08F00200146F9E73F
:100500000EB5C10F80EAE0700844CA07002140F22E
:1005100033438DE80E000A460B4600F0A2F803B004
:1005200000BDC1F30A5210B5C1F3130140F2FF330D
:1005300041F480119A4201DA002010BD40F23343A9
:100540009A42A2F2334203DC524200F028F810BD76
:10055000904010BD30B50B460146002020220124FA
:1005600009E021FA02F59D4205D303FA02F5491B81
:1005700004FA02F52844151EA2F10102F1DC30BD97
:10058000202A04DB203A00FA02F100207047914053
:10059000C2F1200320FA03F3194390407047202A48
:1005A00004DB203A21FA02F00021704721FA02F31D
:1005B000D040C2F1200291400843194670473A28C2
:1005C00000D2303820F02002412A01D3A2F13700B6
:1005D000884201D34FF0FF30704700000268114499
:1005E0001378016018467047D1600449516104498D
:1005F000116200211161114600F0F2B9DD05000819
:10060000D5090008426842B1016811F8013B23B1E5
:10061000521EC0E90012184670470121C160881EB1
:10062000704742685AB1C368016843B983688B4216
:1006300005D0491E521CC0E90012002070474FF03F
:10064000FF30704710B5141E73F1000408DA401C27
:1006500041F1000192185B411A4301D120F00100E1
:1006600010BD2DE9F04D92469B4611B1B1FA81F2D1
:1006700002E0B0FA80F220329046FFF781FF044694
:100680000F4640EA0A0041EA0B0153465A46084326
:1006900013D0114653EA010019D0C8F14002504668
:1006A000FFF77DFF05460E46504659464246FFF786
:1006B00067FF084305D0012004E020463946BDE825
:1006C000F08D0020054346EAE0762C4337430A9834
:1006D0006305E40AA0EB08000022FD0A44EA47543F
:1006E0000A3002D500200146E9E7010510196941E9
:1006F000DDE9084500196941BDE8F04DA2E72DE9A3
:10070000FE4F804681EA0300C00F0C46009021F0A6
:10071000004123F00045B8EB0200A94105D2404654
:10072000214690461C460B46024623F000401043EB
:1007300047D0270DC7F30A00C3F30A510290401AAD
:10074000019040286BDAC3F3130040F4801B00983B
:10075000924620B10023D2EB030A63EB0B0B019806
:100760005946C0F140025046FFF70AFF06460D46C3
:1007700050465946019A00F01BF910EB0800614100
:10078000002487EA115284EAE7731A4340D0009AA2
:1007900062B3019A012A4FEA075215DC001B61EB94
:1007A00002014FF0004202EA0752CDE90042001C6C
:1007B00041F5801132462B46FFF753FF03B0BDE8E9
:1007C000F08F40462146F9E7001B61EB0201001C57
:1007D00041F5801300185B412018A2F5001747EB84
:1007E000030140EAD570B6196D4111E06D084FEA7A
:1007F000360645EAC0754FEA0752001B61EB02015D
:10080000001C41F5801149084FEA300000195141A0
:1008100032462B4603B0BDE8F04FFFF713BF0098F8
:10082000012240000023D0EB020263EBE07300984A
:1008300021464FEAE074B8EB000061EB0401E9E700
:1008400083F000435BE781F0004158E72DE9F04D6C
:1008500081EA030404F0004B21F0004514464FF0F8
:10086000000A23F0004150EA050220D054EA0102B8
:100870001DD0C5F30A570246C5F31303C1F3130095
:10088000C1F30A5640F4801543F48013A7EB060821
:10089000101BD64608F2FD3873EB050002D308F1B1
:1008A000010801E092185B41B8F1000F03DA002063
:1008B0000146BDE8F08D00204FF4801106468446C5
:1008C0000EE0171B73EB050705D3121B63EB050343
:1008D00006434CEA010C49084FEA300092185B418C
:1008E00050EA0107EDD152EA030012D082EA040077
:1008F00083EA0501084305D0101BAB4106D2012253
:10090000002306E000224FF0004302E06FF00102F6
:1009100053101AEB06004CEB085110EB0A0041EBA8
:100920000B01BDE8F04DFFF78DBEC1F30A52C1F3D4
:10093000130140F2FF3341F480119A4202DA0020A1
:100940000146704740F233439A42A2F2334202DC3E
:100950005242FFF724BEFFF713BE000030B5041E5D
:1009600071F1000404DB4FF00044404264EB0101EC
:10097000141E73F1000405DB1C464FF00043524285
:1009800063EB0403994208BF904230BD064C074D0B
:1009900006E0E06840F0010394E80700984710344F
:1009A000AC42F6D3FFF71CFC90560008B056000886
:1009B000202A06DBCB17203A41FA02F043EAE07323
:1009C00006E041FA02F3D040C2F120029140084310
:1009D00019467047C0B24FF4F05100F097B90000CB
:1009E0002DE9F34F8BB04FF0000801F10C000C46DD
:1009F0004FF0010B46460DF1080A01906269012192
:100A000001989047051E2DD0252D2CD0216A8847AE
:100A1000C0B16269012101989047216A8847002886
:100A2000F7D1411E62690198904700E0761CA169E8
:100A30000B988847216A88470028F7D1E1690B980D
:100A40008847DBE7A1690B9888470746A84201D190
:100A5000761CD3E7E1690B9888477F1C02D1B8F177
:100A6000000F6FD046E1002762693D463946019884
:100A700090472A2804D162690121019890470125F5
:100A8000DFF884926269012101989047A0F130015A
:100A90000A290AD24F45E5DC07EB870100EB410745
:100AA000303FDFD445F01005ECE7E90601D46FF0E4
:100AB00000476C280AD04C2814D0682815D06A2822
:100AC0000DD074281CD07A281AD01DE0626901214B
:100AD000019890476C2802D045F0040514E045F0D9
:100AE00002050DE045F020050AE062690121019848
:100AF0009047682802D045F0080505E045F40065F8
:100B00006269012101989047C4E9015765283DD0E9
:100B100019DC58287AD00CDC452837D004DC25288D
:100B200026D0412831D131E046282FD047282CD17A
:100B30002CE05B2877D0612828D063287CD06428FB
:100B400023D15AE0D0E06F2848D008DC66281DD0B9
:100B500067281BD0692821D06E2816D127E070287D
:100B600045D0732868D0752847D078280DD14DE03E
:100B7000A1690B988847054625283FF469AFE169CC
:100B80000B9888476D1C3FF46AAFB3E023466A4672
:100B90006FF001000B99AFF300809EE045F040003C
:100BA0006060A80723464FF0000236D43EE0E80715
:100BB0007FF447AF2068011D21600068290501D539
:100BC00006701BE7290701D5068017E7A90703D59B
:100BD000F117C0E9006111E706600FE745F040003A
:100BE0006060A80723464FF0080216D41EE040F6C6
:100BF0000E0125EA0100606016E045F040006060EB
:100C0000A80723464FF00A0207D40FE045F0400042
:100C10006060A80708D5234610226FF001000B99E9
:100C2000AFF3008059E007E0234610226FF0010087
:100C30000B99FFF74DFB50E04FF000094F464B4634
:100C4000632802D05B2806D040E0E80601D40120EA
:100C5000A06001273AE062690121019890475E286F
:100C600005D14FF001096269494601989047216911
:100C700039B900210A46534643F82120491C082966
:100C8000FADBB0B3216969B9C11700EBD162531126
:100C90000AEB830122F01F02821A01200B689040A8
:100CA00003430B6062690121019890475D28E8D1F8
:100CB000B9F1000F09D00020514651F82020D2434D
:100CC00041F82020401C0828F7DB02AB22460097A1
:100CD0006FF001000B99AFF3008000280CDA401C84
:100CE00008D1BBF1000F05D04FF0FF300DB0BDE8CB
:100CF000F08FFFE74046F9E7E90701D108F1010865
:100D000006444FF0000B79E6CCCCCC0C7F2801D9FF
:100D1000002208E0064A02EB5002C007127800D118
:100D2000120902F00F0201209040084070470000B5
:100D30005056000800BFFEE770470146002091F8BA
:100D40002520022A03D00422CA63012027E00A6872
:100D5000126822F00E020B681A608A6C126822F484
:100D600080728B6C1A600A68126822F001020B68AC
:100D70001A6091F8442002F01F0301229A400B6C84
:100D80005A60D1E913325A604A6D42B14A6D126815
:100D900022F480724B6D1A60D1E916325A6001223A
:100DA00081F8252000BF002281F8242000BF704771
:100DB00070B50446002594F8250002280BD00420C5
:100DC000E063012084F8250000BF002084F824009F
:100DD00000BF012534E02068006820F00E00216883
:100DE00008602068006820F0010021680860A06C9D
:100DF000006820F48070A16C086094F8440000F052
:100E00001F0101208840216C4860D4E9131048601C
:100E1000606D40B1606D006820F48070616D0860A5
:100E2000D4E916104860012084F8250000BF002096
:100E300084F8240000BFA06B10B12046A16B884746
:100E4000284670BD78B502460B460021CAE001264F
:100E50008E401D6805EA0604002C73D01D7905F04C
:100E60000305012D04D01D7905F00305022D13D1D2
:100E700090684E000325B540A8434E00DD68B5409C
:100E800028439060506801258D40A8431D79C5F323
:100E900000158D40284350601D7905F00305032D92
:100EA00009D0D0684E000325B540A8434E009D6888
:100EB000B5402843D0601D7905F00305022D13D1FC
:100EC000CE0802F1200555F826004D07EE0E0F253D
:100ED000B540A8434E07F60E1D69B5402843CE081D
:100EE00002F1200545F8260010684E000325B540A4
:100EF000A8431D7905F003054E00B5402843106056
:100F00005D6805F44035002D6BD000BF384D2D6E67
:100F100045F00105364E356635462D6E05F0010566
:100F2000009500BF00BF4FEAB6358E0855F8260081
:100F30008D072E0F0F25B540A843B2F1904F02D177
:100F400000251AE04DE02B4DAA4201D1012514E005
:100F5000294DAA4201D102250FE0284DAA4201D114
:100F600003250AE0264DAA4201D1042505E0254DBE
:100F7000AA4201D1052500E006258E07360FB540AF
:100F80002843214D8E0845F82600204D2868A043AF
:100F90005D6805F4801505B120431C4D28602D1DAA
:100FA0002868A0435D6805F4001505B12043174D7E
:100FB0002D1D2860154D2D1F2868A0435D6805F480
:100FC000003505B12043114D2D1F28602D1F2868C5
:100FD000A0435D6805F4803505B120430B4D083D05
:100FE0002860491C1D68CD40002D7FF430AF78BDCE
:100FF000001002400004004800080048000C0048AF
:101000000010004800140048080001400804014096
:101010000AB1816100E08162704700000148006808
:10102000000C7047002004E0014800687047000091
:101030001400002003480068034909680844014976
:1010400008607047140000201C00002010B5002428
:10105000032000F089F8002000F008F808B101240E
:1010600001E000F02FF8204610BD000070B50446E6
:10107000002511480068D8B10F4800684FF47A7114
:10108000B1FBF0F00D490968B1FBF0F6304601F014
:1010900048F958B9102C07D200222146501E00F002
:1010A00026F80748046004E0012502E0012500E07D
:1010B0000125284670BD00001C000020040000200F
:1010C0001800002070470146084600280DDB00BFCD
:1010D00000BF00F01F0301229A4043099B0003F167
:1010E000E023C3F8002100BF00BF00BF70472DE917
:1010F000F05F80460D46164603F0EEF80746394687
:101100002A46334601F00700C0F1070ABAF1040F7E
:1011100002D94FF0040A01E0C0F1070AD14600F1FC
:10112000040ABAF1070F02D24FF0000A01E0A0F161
:10113000030AD4464FF0010A0AFA09FAAAF1010A91
:101140000AEA020A0AFA0CFA4FF0010B0BFA0CFB3E
:10115000ABF1010B0BEA030B4AEA0B0421464046B4
:1011600003F0C2F8BDE8F09F00BF00F00702064B95
:1011700019684FF6FF031940044B0B4343EA022161
:10118000014B196000BF70470CED00E00000FA054C
:1011900002468ABB4148006800F4C060B0F5806F29
:1011A0002BD13E488030006820F480703B4BC3F860
:1011B00080001846006820F4C06040F40070186099
:1011C0003748006832235843364BB0FBF3F0411CDC
:1011D00000E0491E3148406900F48060B0F5806F3E
:1011E00001D10029F5D12D48406900F48060B0F5A7
:1011F000806F51D10320704708E028488030006894
:1012000020F48070254BC3F8800045E0B2F5007FE4
:101210003AD12248006800F4C060B0F5806F2AD14E
:101220001E488030006840F480701C4BC3F880007A
:101230001846006820F4C06040F400701860184838
:10124000006832235843174BB0FBF3F0411C00E019
:10125000491E1248406900F48060B0F5806F01D1EA
:101260000029F5D10D48406900F48060B0F5806F29
:1012700012D10320BFE709488030006840F4807035
:10128000064BC3F8800007E00448006820F4C06003
:1012900040F48060014B18600020ACE70070004013
:1012A0000400002040420F002DE9F04104460D46A5
:1012B0004FF0000814B90120BDE8F0817D480068B6
:1012C00000F00F00A8420ED27A48006820F00F000C
:1012D0002843784908600846006800F00F00A842DB
:1012E00001D00120E8E7207800F00100002864D058
:1012F0006068032823D17048006800F0007008B9C6
:101300000120D9E701F004FD06466C48864237D932
:101310006948806800F0F00030B1207800F00200E9
:1013200002282DD1A06858BB6348806820F0F000E7
:1013300040F08000604988604FF0800820E06068DD
:10134000022806D15C48006800F4003040B9012052
:10135000B2E75948006800F4806008B90120ABE7A3
:1013600000F0DEF806465548864209D952488068A2
:1013700020F0F00040F080004F4988604FF0800876
:101380004D48806820F00300616808434A4988603E
:10139000FFF74AFE074608E0FFF746FEC01B41F292
:1013A0008831884201D9032086E74348806800F0ED
:1013B0000C006168B0EB810FEED1207800F00200E4
:1013C000022820D1207800F00400042805D13A48F2
:1013D000806840F4E06038498860207800F00800B8
:1013E000082807D13448806820F4605040F4E06059
:1013F000314988603048806820F0F000A1680843D7
:101400002D49886008E0B8F1800F05D12A4880682E
:1014100020F0F000284988602648006800F00F009E
:10142000A84219D92348006820F00F002843214919
:101430000860FFF7F9FD074608E0FFF7F5FDC01B60
:1014400041F28831884201D9032035E71948006804
:1014500000F00F00A842F0D1207800F0040004282A
:1014600007D11548806820F4E060E168084312491C
:101470008860207800F00800082808D10E488068AD
:1014800020F46050216940EAC1000B49886000F0F7
:1014900047F809498968C1F30311094A515C01F011
:1014A0001F01C8400749086007480068FFF7DEFDD4
:1014B00002E70000002002400010024000B4C40413
:1014C0002056000804000020180000200148006891
:1014D000704700000400002000B5FFF7F7FF054942
:1014E0008968C1F30221044A515C01F01F01C84020
:1014F00000BD0000001002403056000800B5FFF7A4
:10150000E5FF05498968C1F3C221044A515C01F035
:101510001F01C84000BD0000001002403056000806
:1015200070B5224DAD6805F00C05042D01D12048A1
:101530003AE01E4DAD6805F00C05082D01D11D489F
:1015400032E01A4DAD6805F00C050C2D2BD1174D6E
:10155000ED6805F00304154DED68C5F303156A1C2D
:10156000022C0CD0032C09D1124DB5FBF2F50F4E15
:10157000F668C6F3062605FB06F10AE000BF0C4D2F
:10158000B5FBF2F5094EF668C6F3062605FB06F133
:1015900000BF00BF054DED68C5F341656D1C6B00D4
:1015A000B1FBF3F000E0002070BD0000001002402D
:1015B0000024F40000127A002DE9F843044614B91F
:1015C0000120BDE8F883207800F00100002865D0F4
:1015D000FC48806800F00C07FA48C06800F0030679
:1015E0000C2F01D1032E01D0082F0AD1F548006835
:1015F00000F40030002851D0606800284ED101204E
:10160000DFE700BF6068B0F5803F06D1ED480068B5
:1016100040F48030EB4908601AE06068B0F5A02F14
:101620000BD1E848006840F48020E649086008468D
:10163000006840F4803008600AE0E248006820F466
:101640008030E04908600846006820F48020086087
:1016500000BF606888B1FFF7E7FC054606E0FFF7CA
:10166000E3FC401B642801D90320AAE7D5480068A1
:1016700000F400300028F2D010E0FFF7D5FC05465A
:1016800006E0FFF7D1FC401B642801D9032098E74E
:10169000CC48006800F400300028F2D1207800F037
:1016A0000200022860D1C748806800F00C07C548D6
:1016B000C06800F003060C2F01D1022E01D0042FC8
:1016C00018D1C048006800F4806018B1E06808B91B
:1016D000012076E7BB48406820F0FE40217C40EACC
:1016E0000160B8494860B8480068FFF7BFFC18B30C
:1016F000012066E7E06800B3B248006840F48070FB
:10170000B0490860FFF790FC054606E0FFF78CFC47
:10171000401B022801D9032053E7AA48006800F4BF
:1017200080600028F2D0A748406820F0FE40217C6D
:1017300040EA0160A349486016E0A248006820F42E
:101740008070A0490860FFF76FFC054606E0FFF7D0
:101750006BFC401B022801D9032032E7994800683E
:1017600000F480600028F2D1207800F008000828FA
:1017700036D16069D0B193489430006840F00100E0
:101780009049C1F89400FFF74FFC054606E0FFF7CB
:101790004BFC401B022801D9032012E789489430F2
:1017A000006800F002000028F1D019E0854894306C
:1017B000006820F001008349C1F89400FFF734FC71
:1017C000054606E0FFF730FC401B022801D9032044
:1017D000F7E67C489430006800F002000028F1D160
:1017E000207800F00400042872D14FF000087548FA
:1017F000806D012121EA107078B100BF7148806DC1
:1018000040F080506F4988650846806D00F0805038
:10181000009000BF00BF4FF001086C48006800F462
:101820008070B0B96948006840F48070674908600A
:10183000FFF7FAFB054606E0FFF7F6FB401B022820
:1018400001D90320BDE66148006800F480700028DB
:10185000F2D000BFA068012808D15A489030006833
:1018600040F001005749C1F8900021E0A068052828
:101870000FD154489030006840F004005149C1F83D
:1018800090000846D0F8900040F00100C1F89000A8
:101890000EE04C489030006820F001004949C1F842
:1018A00090000846D0F8900020F00400C1F89000A5
:1018B00000BFA068A8B1FFF7B7FB054609E0FFF736
:1018C000B3FB401B41F28831884202D9032078E6FD
:1018D00025E03C489030006800F002000028EED07F
:1018E00013E0FFF7A1FB054608E0FFF79DFB401B57
:1018F00041F28831884201D9032062E631489030B4
:10190000006800F002000028EFD1B8F1010F05D106
:101910002C48806D20F080502A49886500BF2078CF
:1019200000F02000202836D1A069D0B12548983099
:10193000006840F001002349C1F89800FFF774FBEC
:10194000054606E0FFF770FB401B022801D9032083
:1019500037E61C489830006800F002000028F1D0FB
:1019600019E018489830006820F001001549C1F8C6
:101970009800FFF759FB054606E0FFF755FB401BB3
:10198000022801D903201CE60E489830006800F0B8
:1019900002000028F1D1E069002860D00948806881
:1019A00000F00C000C287FD0E069022858D10548CF
:1019B000006820F0807003490860FFF735FB05469A
:1019C0000DE00000001002401800002000700040F0
:1019D000FFF72AFB401B022801D90320F1E54D48FF
:1019E000006800F000700028F2D1D4E90810401E11
:1019F00041EA0011A06A41EA0021208E0122C2EBD7
:101A0000500041EA40513420005DC2EB500041EAF1
:101A100040612C20005D41EAC0603E49C9683E4AF1
:101A2000114008433B49C8600846006840F0807098
:101A300008600846C06840F08070C860FFF7F4FA9C
:101A4000054606E0FFF7F0FA401B022801D9032003
:101A5000B7E53048006800F000700028F2D056E08A
:101A60002C48006820F080702A4908600846C06849
:101A700020F00300C8600846C0682849084025498E
:101A8000C860FFF7D1FA054607E00DE0FFF7CCFA92
:101A9000401B022801D9032093E51E48006800F08E
:101AA00000700028F2D132E0E069012800D188E519
:101AB0001848C66806F00301206A814225D106F065
:101AC000F001606A401EB1EB001F1ED106F4FE411A
:101AD000A06AB1EB002F18D106F078412C20005DF0
:101AE000B1EBC06F11D106F4C001208E0122C2EB10
:101AF0005000B1EB405F08D106F0C0613420005DBA
:101B0000C2EB5000B1EB406F01D0012059E500203D
:101B100057E50000001002400C809F01FFFFEEFE21
:101B200070B504460CB9012070BD606A38B96068B0
:101B3000B0F5827F00D105E00021E16102E00021E3
:101B400021616161A06AB0F5005F00D100BF94F827
:101B50005D0028B9002084F85C00204600F082F87F
:101B6000022084F85D002068006820F040002168B1
:101B70000860E068B0F5E06F01D9002501E04FF49E
:101B80008055E068B0F5706F05D0E068B0F5E06FA3
:101B900001D00021A162A08800F48270218901F4A3
:101BA00004410843217C01F002010843217D01F03A
:101BB00001010843218B01F400710843217F01F0EA
:101BC000380108432021095D01F080010843218D7F
:101BD00001F40051084321680860A06AB0F5005F75
:101BE00013D1206B40B9E068B0F5E06F02D9022153
:101BF000216301E001212163206B022805D12068C7
:101C0000006840F40060216808600421A06901EACE
:101C1000104094F8241001F01001084394F8341097
:101C200001F008010843A18901F47061084305F43B
:101C30008051084321684860A06AB0F5005F03D175
:101C4000A08D80B2216808612068C06920F400601E
:101C50002168C86100202066012084F85D00002012
:101C600062E7000010B586B004461D49206888422E
:101C700034D100BF00BF1B48C06C40F002001949BE
:101C8000C8640846C06C00F00200009000BF00BFAE
:101C900000BF00BF00BF0846C06C40F00200C8642F
:101CA0000846C06C00F00200009000BF00BF00BFFB
:101CB000082001900220029001200390022004904D
:101CC0000520059001A90848FFF7BCF820200190E5
:101CD0000520059001A90448FFF7B4F806B010BD2F
:101CE0000030014000100240000400482DE9F84F88
:101CF0000446884616461D464FF0000A00BF94F879
:101D00005C00012802D10220BDE8F88F012084F890
:101D10005C0000BFFFF788F90746B14694F85D0004
:101D2000012802D04FF0020AE7E0B8F1000F00D01E
:101D300016B94FF0010AE0E0032084F85D000020AE
:101D40002066C4F83880A687E6872064A4F844009B
:101D5000A4F846002065E064A068B0F5004F0BD100
:101D60002068006820F04000216808602068006852
:101D700040F4804021680860A06AB0F5005F0DD192
:101D800000BF2068006820F40050216808602068C7
:101D9000006840F400502168086000BF20680068B7
:101DA00000F04000402805D02068006840F0400066
:101DB00021680860E068B0F5E06F2FD9606810B165
:101DC000B9F1010F09D1A06B00882168C860A06B30
:101DD000801CA063E08F401EE0871BE020688068C5
:101DE00000F0020002280AD1A06B00882168C860B8
:101DF000A06B801CA063E08F401EE0870AE0FFF725
:101E000013F9C01BA84201D3681C00B915B94FF0E3
:101E1000030A72E0E08F0028E0D14AE0606810B168
:101E2000B9F1010F17D1E08F01280AD9A06B008802
:101E30002168C860A06B801CA063E08F801EE087D3
:101E400009E0A06B007821680873A06B401CA063B8
:101E5000E08F401EE08729E02068806800F00200E3
:101E6000022818D1E08F01280AD9A06B00882168C8
:101E7000C860A06B801CA063E08F801EE08715E027
:101E8000A06B007821680873A06B401CA063E08FF2
:101E9000401EE0870AE0FFF7C7F8C01BA84201D345
:101EA000681C00B915B94FF0030A26E0E08F00283E
:101EB000D2D1A06AB0F5005F05D12068006840F477
:101EC0008050216808603A462946204600F054FFB9
:101ED00008B120202066A06850B900BF0020009003
:101EE0002068C068009020688068009000BF00BF34
:101EF000206E08B14FF0010A00BF012084F85D0098
:101F000000BF002084F85C0000BF5046FCE62DE9CD
:101F1000FF4F89B0044689461D46169E0020069054
:101F20000390012002900020019000BF94F85C0013
:101F3000012803D102200DB0BDE8F08F012084F804
:101F40005C0000BFFFF770F8074694F85DA060687A
:101F50000790A84608952068D0F800B0206840682F
:101F60000590BAF1010F0BD00798B0F5827F04D12C
:101F7000A06810B9BAF1040F02D002200190B2E1BA
:101F8000B9F1000F02D00B9800B115B901200190F2
:101F9000A9E194F85D00042802D0052084F85D00D2
:101FA000002020660B982064A4F84650A4F8445002
:101FB000C4F83890E587A5870020E0642065A06A12
:101FC000B0F5005F0DD100BF2068006820F400501C
:101FD000216808602068006840F4005021680860AB
:101FE00000BFE068B0F5E06F02D80898012806D974
:101FF0002068406820F480502168486005E020682F
:10200000406840F48050216848602068006800F013
:102010004000402805D02068006840F0400021685A
:102020000860E068B0F5E06F68D9606810B1B8F199
:10203000010F09D1A06B00882168C860A06B801CCB
:10204000A063E08F401EE08750E02068806800F0C9
:10205000020002282AD1E08F40B30298012825D13E
:10206000A06B00882168C860A06B801CA063E08F13
:10207000401EE08700200290E08FB8B9A06AB0F55A
:10208000005F13D10BF0040050B9059800F0080070
:10209000082805D12068006840F4007021680860B5
:1020A0002068006840F480502168086020688068DB
:1020B00000F0010080B1B4F8460068B12068C06843
:1020C000216C0880206C801C2064B4F84600401EFF
:1020D000A4F8460001200290FEF7A6FFC01BB04204
:1020E00004D3701C10B103200190FCE0E08F0028A5
:1020F000ABD1B4F846000028A7D19FE0606810B1CA
:10210000B8F1010F17D1E08F01280AD9A06B008820
:102110002168C860A06B801CA063E08F801EE087F0
:1021200009E0A06B007821680873A06B401CA063D5
:10213000E08F401EE0877AE02068806800F00200AF
:10214000022838D1E08FB0B30298012833D1E08F54
:1021500001280AD9A06B00882168C860A06B801C88
:10216000A063E08F801EE08709E0A06B0078216803
:102170000873A06B401CA063E08F401EE087002026
:102180000290E08FB8B9A06AB0F5005F13D10BF0F0
:10219000040050B9059800F00800082805D120680F
:1021A000006840F40070216808602068006840F40E
:1021B0008050216808602068806800F0010058B3F2
:1021C000B4F8460040B3B4F84600012816D9206898
:1021D000C068216C0880206C801C2064B4F8460024
:1021E000801EA4F84600B4F84600012812D82068E2
:1021F000406840F48050216848600BE02068007B14
:10220000216C0870206C401C2064B4F84600401E0D
:10221000A4F8460001200290FEF706FFC01BB04262
:1022200001D3701C00B916B9032001905BE0E08F68
:10223000002881D1B4F846000028FAD1A06AB0F590
:10224000005F35D13346012211462046009700F049
:1022500041FE30B1206E40F0020020660320019064
:1022600041E0E068B0F5706F03D12068C068069067
:102270001EE020680C3004900498007803909DF8CC
:102280000C00206B022813D1334601221146204650
:10229000009700F01FFE30B1206E40F00200206673
:1022A000032001901FE00498007803909DF80C0033
:1022B0002068806800F01000102809D1206E40F0DE
:1022C000020020664FF6EF702168886001200190BF
:1022D0003A463146204600F04FFD18B101200190EA
:1022E0002020206600BF012084F85D0000BF002090
:1022F00084F85C0000BF01981DE6042808D14FF067
:10230000E021096941F004014FF0E022116107E08A
:102310004FF0E021096921F004014FF0E022116142
:10232000704770B504462546681EB0F1807F01D322
:1023300001200FE0681E4FF0E02148610F214FF0AF
:10234000FF3001F0D1FF00204FF0E021886107202D
:102350000861002070BD2DE9F04104460D46164687
:10236000002700BF94F83C00012802D10220BDE8FC
:10237000F081012084F83C0000BF0C2E51D005DC18
:102380004EB1042E1ED0082E7AD133E0102E60D02C
:10239000142EF9D175E02946206800F099FE2068D6
:1023A000806940F00800216888612068806920F019
:1023B00004002168886120688069296908432168D0
:1023C000886178E02946206800F0E0FE2068806996
:1023D00040F40060216888612068806920F4806092
:1023E0002168886120688069296940EA01202168A4
:1023F000886160E02946206800F02CFF2068C069F1
:1024000040F008002168C8612068C06920F004001D
:102410002168C8612068C069296908432168C861CA
:1024200049E02946206800F077FF2068C06940F441
:1024300000602168C8612068C06920F4806021685C
:10244000C8612068C069296940EA01202168C86123
:1024500031E02946206800F0C3FF2068006D40F09D
:102460000800216808652068006D20F004002168DC
:1024700008652068006D29690843216808651AE02D
:1024800017E02946206800F0E7FF2068006D40F45F
:102490000060216808652068006D20F48060216874
:1024A00008652068006D296940EA012021680865F7
:1024B00001E0012700BF00BF00BF002084F83C00FE
:1024C00000BF384653E710B504460CB9012010BDD3
:1024D00094F83D0028B9002084F83C00204600F024
:1024E00029F8022084F83D00211D206800F06EFDCF
:1024F000012084F8480000BF84F83E0001213F20FD
:1025000001554020015541200155422001554320ED
:10251000015500BF00BF012084F84400452001554B
:10252000462001554720015500BF012084F83D0099
:102530000020CCE710B586B004461D4920688842CB
:1025400033D100BF00BF1B48006E40F40050194952
:1025500008660846006E00F40050009000BF00BFFF
:1025600000BF00BF00BF0846C06C40F00400C86454
:102570000846C06C00F00400009000BF00BF00BF20
:10258000402001900220029001200390022004903C
:102590000420059001A90848FEF754FC8020019012
:1025A00001A90548FEF74EFC00BF06B010BD0000B3
:1025B00000340140001002400008004870B5044695
:1025C0000D4615B994F83E0015E0042D02D13F20C8
:1025D000005D10E0082D02D14020005D0BE00C2DC5
:1025E00002D14120005D06E0102D02D14220005DA5
:1025F00001E04320005D012801D0012070BD1DB91C
:10260000022084F83E001AE0042D03D102213F206D
:10261000015514E0082D03D10221402001550EE0A0
:102620000C2D03D102214120015508E0102D03D1CA
:1026300002214220015502E00221432001550122DE
:102640002946206800F032FD2D492068884213D0C9
:102650002C49206888420FD02B49206888420BD033
:102660002A492068884207D029492068884203D037
:1026700028492068884201D1012000E0002028B1CB
:102680002068406C40F40040216848641C49206880
:1026900088421BD02068B0F1804F17D01E492068B7
:1026A000884213D01D49206888420FD01C492068F9
:1026B00088420BD013492068884207D0124920680D
:1026C000884203D013492068884210D1206880686E
:1026D000144900EA0106062E0FD0B6F5803F0CD053
:1026E0002068006840F001002168086005E020686B
:1026F000006840F001002168086000207EE70000CB
:10270000002C0140003401400040014000440140E1
:102710000048014000500140000400400008004013
:10272000000C004007000100704770477047704779
:1027300070470146D1F88430D1F8882043EA02007E
:10274000704700002DE9F04704462068C5692068FD
:1027500006682068876840F60F0005EA0009B9F1AD
:10276000000F0FD105F0200060B106F0200010B975
:1027700007F0805030B1206F10B12046216F88479C
:10278000BDE8F087B9F1000F7ED0CF48384018B9C6
:10279000CE4830400028F7D005F0010058B106F4CB
:1027A000807040B1012021680862D4F88C0040F0AC
:1027B0000100C4F88C0005F0020058B107F00100D8
:1027C00040B1022021680862D4F88C0040F0040077
:1027D000C4F88C0005F0040058B107F0010040B1C6
:1027E000042021680862D4F88C0040F00200C4F88C
:1027F0008C0005F0080070B106F0200010B9B24856
:10280000384040B1082021680862D4F88C0040F0BC
:102810000800C4F88C0005F4006060B106F0806028
:1028200048B14FF4006021680862D4F88C0040F091
:102830002000C4F88C00D4F88C0000284ED005F09D
:10284000200050B106F0200010B907F0805020B1F0
:10285000206F10B12046216F8847D4F88CA02068E3
:10286000806800F04000402802D00AF0280070B3D1
:10287000204600F0F3FE2068806800F04000402809
:1028800021D100BF00BF00E029E02168083151E8F4
:10289000001F21F040002168083141E80002002AB1
:1028A000F1D100BFE06F50B18948E16F8863E06FFC
:1028B000FEF77EFA90B1E06F816B88470EE020460C
:1028C000FFF736FF0AE02046FFF732FF06E0FFE79A
:1028D0002046FFF72DFF0020C4F88C0050E7E06E83
:1028E000012870D105F0100000286CD006F010000F
:1028F0000028FAD01020216808622068806800F063
:102900004000402860D1E06F006840681FFA80F8FE
:10291000B8F1000F56D0B4F85C00404552DDA4F881
:102920005E80E06F0068006800F02000F0BB00BF30
:1029300000BF216851E8001F21F48070226842E83E
:1029400000010029F5D100BF00BF00BF2168083198
:1029500051E8001F21F001002168083141E8000220
:10296000002AF3D100BF00BF00BF2168083151E841
:10297000001F21F040002168083141E80002002AD0
:10298000F3D100BF2020C4F888000020E06600BF1B
:1029900000BF216851E8001F21F01000226842E8C2
:1029A00000010029F5D100BFE06F00E001E0FEF773
:1029B000C4F9B4F85C00B4F85E20801A81B22046F5
:1029C000FFF7B2FEDCE641E034F85C0F6188401AA4
:1029D0001FFA80F860885C3CB8B3B8F1000F34D0BF
:1029E00000BF00BF216851E8001F21F490702268E9
:1029F00042E800010029F5D100BF00BF00BF2168F7
:102A0000083151E8001F304AD24301EA0200216830
:102A1000083141E80002002AF1D100BF2020C4F8AB
:102A200088000020E066206700BF00BF216851E8F1
:102A3000001F21F01000226842E800010029F5D1B2
:102A400000BF41462046FFF76FFE99E605F480106F
:102A500050B107F4800038B14FF48010216808624B
:102A60002046FFF764FE8BE605F0800058B106F0C3
:102A7000800010B907F4000028B1606F10B1204643
:102A8000616F88477CE605F0400030B106F04000F9
:102A900018B1204600F018FE72E605F4000030B1CF
:102AA00006F0804018B12046FFF740FE68E605F0CA
:102AB000807030B106F0004018B12046FFF735FEB7
:102AC0005EE600BF5CE6000001000010200100048B
:102AD0004336000810B504460CB9012010BDA069AA
:102AE00000B100E000BFD4F8840028B9002084F8C9
:102AF0008000204600F02AF82420C4F884002068D2
:102B0000006820F0010021680860204601F08EF87E
:102B1000012800D1E2E7A06A10B1204600F0DAFCFB
:102B20002068406820F490402168486020688068F0
:102B300020F02A00216888602068006840F00100C9
:102B400021680860204600F041FDC7E710B586B057
:102B500004462949206888424BD100BF00BF27485E
:102B6000006E40F48040254908660846006E00F477
:102B70008040009000BF00BF00BF00BF00BF0846FC
:102B8000C06C40F00200C8640846C06C00F002004F
:102B9000009000BF00BF00BF00BF00BF0846C06C70
:102BA00040F00200C8640846C06C00F002000090CB
:102BB00000BF00BF00BF4020019002200290012012
:102BC0000390022004900720059001A90C48FEF70D
:102BD00039F9802001900720059001A90848FEF7E7
:102BE00031F92520FEF76FFA032211462520FEF762
:102BF0007EFA06B010BD000000380140001002400F
:102C00000004004870B504460D461646D4F8880006
:102C100020282CD105B10EB9012070BD00BF94F859
:102C20008000012801D10220F7E7012084F880000C
:102C300000BF0020E0660F492068884211D020685C
:102C4000406800F4000060B100BF00BF216851E897
:102C5000001F41F08060226842E800010029F5D1A0
:102C600000BF32462946204601F0C4F9D5E70220CC
:102C7000D3E70000008000401D4A0168914236D130
:102C80001C49098801F4004189BB1A49098801F4EB
:102C9000804171B1184909780A2903D00021154AE9
:102CA000118024E01349098841F40041114A118040
:102CB0001DE0114909780D2906D10E49098841F412
:102CC00080410C4A118012E00B490978094A1288A8
:102CD000C2F30D02094B995406490988491C054A5B
:102CE000118011460988C72901DD00211180704734
:102CF00000380140100000201200002020000020B9
:102D0000704700BFFEE700BFFEE770477047000056
:102D100070B5164DED6805F00304144DED68C5F36C
:102D200003156B1C022C0CD0032C09D1104DB5FBE4
:102D3000F3F50E4EF668C6F3062605FB06F10AE02B
:102D400000BF0C4DB5FBF3F5084EF668C6F306263A
:102D500005FB06F100BF00BF044DED68C5F34165FA
:102D60006D1C6A00B1FBF2F070BD00000010024063
:102D700000127A000024F400F8B504460E46154609
:102D8000334600224FF4C0512046009500F026F84B
:102D900028B1206E40F0200020660320F8BD3346A5
:102DA000002280212046009500F094F828B1206E82
:102DB00040F0200020660320F0E7334600224FF465
:102DC000C0612046009500F009F828B1206E40F05F
:102DD000200020660320E1E70020DFE72DE9FC5F0B
:102DE00004460D4616461F46DDF830900020009040
:102DF000FEF71AF9A0EB0900A7EB0008FEF714F99B
:102E00008246206800F10C0B31480068C0EBC0001E
:102E100000EB8000000D00FB08F0019050E0B5F5DC
:102E2000C06F05D126B99BF8000000909DF8000006
:102E3000781C002844D0FEF7F7F8A0EB0A004045C4
:102E400002D2B8F1000F34D12068406820F0E000D1
:102E5000216848606068B0F5827F0DD1A068B0F548
:102E6000004F03D0A068B0F5806F05D120680068DE
:102E700020F0400021680860A06AB0F5005F0DD125
:102E800000BF2068006820F40050216808602068B6
:102E9000006840F400502168086000BF012084F8F9
:102EA0005D0000BF002084F85C0000BF0320BDE887
:102EB000FC9F019808B94FF000080198401E01904E
:102EC000206880682840B042A9D10020EFE70000C8
:102ED000040000202DE9F84F04460D4690461E469A
:102EE000DDF82890FEF7A0F8A0EB0900371AFEF7EE
:102EF0009BF882462C480068C0F3CB3078430090A2
:102F000045E0701C002842D0FEF78EF8A0EB0A00C6
:102F1000B84200D2A7BB2068406820F0E0002168DA
:102F200048606068B0F5827F0DD1A068B0F5004FB1
:102F300003D0A068B0F5806F05D12068006820F04C
:102F4000400021680860A06AB0F5005F0DD100BFA5
:102F50002068006820F4005021680860206800683C
:102F600040F400502168086000BF012084F85D0033
:102F700000BF002084F85C0000BF0320BDE8F88F8C
:102F8000FFE7009800B900270098401E00902068D5
:102F900080682840A84201D1012000E0002040457F
:102FA000AFD10020EAE7000004000020704710B510
:102FB000FEF740F810BD00000348006840F47000C0
:102FC000014908607047000088ED00E010B5026814
:102FD0002D4B984211D0B0F1804F0ED02B4B984220
:102FE0000BD02B4B984208D02A4B984205D02A4B45
:102FF000984202D0294B984203D122F070024B68CC
:103000001A43214B98421AD0B0F1804F17D01F4B72
:10301000984214D01E4B984211D01E4B98420ED0AD
:103020001D4B98420BD01E4B984208D01D4B984226
:1030300005D01D4B984202D0184B984203D122F480
:103040004072CB681A4322F080034C6943EA0402C1
:1030500002608B68C3620B6883620B4B98420ED090
:103060000D4B98420BD00E4B984208D00D4B984216
:1030700005D00D4B984202D0084B984201D10B6904
:1030800003630123436110BD002C01400004004094
:1030900000080040000C0040003401400050014096
:1030A00000400140004401400048014030B501F0BB
:1030B0001F05012404FA05F3046A9C430462046AB0
:1030C00001F01F0502FA05F52C43046230BD000033
:1030D00030B5056A25F001050562026A4368846916
:1030E000234D2C4024F003040D682C4322F00202EF
:1030F0008D682A431F4DA84200D113E01E4DA842FF
:1031000000D10FE01D4DA84200D10BE01C4DA8429C
:1031100000D107E01B4DA84200D103E01A4DA842A0
:1031200006D100BF22F00802CD682A4322F0040233
:10313000104DA8420ED0104DA8420BD00F4DA84202
:1031400008D00F4DA84205D00E4DA84202D00E4D1A
:10315000A84207D123F4807323F400734D692B43F5
:103160008D692B43436084614D684563026230BDC5
:103170008FFFFEFF002C0140003401400040014061
:1031800000440140004801400050014030B5056A4C
:1031900025F010050562026A43688469264D2C40BB
:1031A00024F440740D6844EA052422F020028D685E
:1031B00042EA0512214DA84200D113E0204DA84259
:1031C00000D10FE01F4DA84200D100BF1E4DA84204
:1031D00000D100BF1D4DA84200D100BF1C4DA84228
:1031E00007D100BF22F08002CD6842EA051222F02A
:1031F0004002124DA8420ED0114DA8420BD0114DE5
:10320000A84208D0104DA84205D0104DA84202D0C7
:103210000F4DA84209D123F4806323F400634D6964
:1032200043EA85038D6943EA8503436084614D6801
:103230008563026230BD0000FF8FFFFE002C01405D
:10324000003401400040014000440140004801407A
:103250000050014030B5056A25F480750562026AA8
:103260004368C469254D2C4024F003040D682C43A9
:1032700022F400728D6842EA0522214DA84200D155
:1032800013E0204DA84200D10FE01F4DA84200D10D
:1032900000BF1E4DA84200D100BF1D4DA84200D165
:1032A00000BF1C4DA84207D100BF22F40062CD68C8
:1032B00042EA052222F48062114DA8420ED0114D3F
:1032C000A8420BD0104DA84208D0104DA84205D0FE
:1032D0000F4DA84202D00F4DA84209D123F48053CC
:1032E00023F400534D6943EA05138D6943EA05133E
:1032F0004360C4614D68C563026230BD8FFFFEFF4D
:10330000002C0140003401400040014000440140D5
:10331000004801400050014030B5056A25F4805551
:103320000562026A4368C469264D2C4024F4407447
:103330000D6844EA052422F400528D6842EA053201
:10334000214DA84200D113E0204DA84200D10FE04A
:103350001F4DA84200D100BF1E4DA84200D100BFA2
:103360001D4DA84200D100BF1C4DA84207D100BF8F
:1033700022F40042CD6842EA053222F48042124D26
:10338000A8420ED0114DA8420BD0114DA84208D032
:10339000104DA84205D0104DA84202D00F4DA842B2
:1033A00009D123F4804323F400434D6943EA851394
:1033B0008D6943EA85134360C4614D680564026208
:1033C00030BD0000FF8FFFFE002C014000340140A3
:1033D00000400140004401400048014000500140CD
:1033E00030B5056A25F480350562026A4368046DCC
:1033F000124D2C400D682C4322F400320D8942EA14
:1034000005420F4DA8420ED00E4DA8420BD00E4DD6
:10341000A84208D00D4DA84205D00D4DA84202D0BB
:103420000C4DA84204D123F480334D6943EA0523AF
:10343000436004654D688564026230BD8FFFFEFF06
:10344000002C014000340140004001400044014094
:10345000004801400050014030B5056A25F4801550
:103460000562026A4368046D134D2C400D6844EAFE
:10347000052422F400120D8942EA05520F4DA8429C
:103480000ED00F4DA8420BD00E4DA84208D00E4DC5
:10349000A84205D00D4DA84202D00D4DA84204D13E
:1034A00023F480234D6943EA8523436004654D6816
:1034B000C564026230BD0000FF8FFFFE002C01409A
:1034C00000340140004001400044014000480140F8
:1034D0000050014090F8281001F0010139B1016855
:1034E000496821F40031C26A11430268516090F8C2
:1034F000281001F00201022907D10168496821F46E
:103500008031026B11430268516090F8281001F07D
:103510000401042907D10168496821F48021426B24
:1035200011430268516090F8281001F00801082941
:1035300007D10168496821F40041826B1143026898
:10354000516090F8281001F01001102907D101688E
:10355000896821F48051C26B11430268916090F830
:10356000281001F02001202907D10168896821F481
:103570000051026C11430268916090F8281001F02C
:103580004001402913D10168496821F48011426C3F
:10359000114302685160416CB1F5801F07D1016889
:1035A000496821F4C001826C11430268516090F8AF
:1035B000281001F08001802907D10168496821F4B1
:1035C0000021C26C114302685160704738B504464F
:1035D0000020C4F88C00FDF727FD05462068006830
:1035E00000F0080008280CD16FF07E402B46002226
:1035F0004FF400110090204600F0B4FD08B1032004
:1036000038BD2068006800F0040004280CD16FF079
:103610007E402B4600224FF480010090204600F0AF
:10362000A1FD08B10320EBE72020C4F88400C4F812
:1036300088000020E06600BF84F8800000BF00BF63
:10364000DEE770B50546AC6A0020A4F85E00A4F879
:1036500056002046FFF76CF870BD000000BF00BFA9
:10366000026852E8002F22F49071036843E80012C8
:10367000002AF5D100BF00BF00BF0268083252E83F
:10368000002F104B02EA03010268083242E80013DF
:10369000002BF2D100BFC16E01290CD100BF00BFC9
:1036A000026852E8002F22F01001036843E800127C
:1036B000002AF5D100BF2021C0F888100021C16682
:1036C00001677047FEFFFFEF10B5044600BF00BF63
:1036D000216851E8001F21F04000226842E8000103
:1036E0000029F5D100BF2020C4F8840000206067C5
:1036F0002046FFF705FB10BD2DE9F0410446B4F864
:103700006070D4F88800222857D12068406A86B2B9
:10371000A56D06EA07002880A06D801CA065B4F89E
:103720005E00401EA4F85E00B4F85E0000284AD196
:1037300000BF00BF216851E8001F21F4907022688B
:1037400042E800010029F5D100BF00BF00BF216899
:10375000083151E8001F21F001002168083141E8DB
:103760000002002AF3D100BF2020C4F88800002006
:103770002067E06E01281CD10020E06600BF00BF7A
:10378000216851E8001F21F01000226842E8000182
:103790000029F5D100BF2068C069C0F3001010B146
:1037A000102021680862B4F85C102046FEF7BCFFC8
:1037B00009E02046FFF760FA05E02068806940F0E4
:1037C000080021688861BDE8F08100002DE9F84F0C
:1037D0000446B4F860B02068C569206800680090AD
:1037E0002068D0F808A0D4F8880022287ED1B4F848
:1037F000689096E02068406A1FFA80F8A76D08EA92
:103800000B003880A06D801CA065B4F85E00401EDF
:10381000A4F85E002068C56905F00700B0B305F0A4
:10382000010060B1009800F4807040B1012021686F
:103830000862D4F88C0040F00100C4F88C0005F058
:10384000020058B10AF0010040B10220216808626C
:10385000D4F88C0040F00400C4F88C0005F004009B
:1038600058B10AF0010040B1042021680862D4F880
:103870008C0040F00200C4F88C00D4F88C0028B111
:103880002046FEF755FF0020C4F88C00B4F85E0017
:1038900068BB00BF00BF216851E8001F21F48070A1
:1038A000226842E800010029F5D100BF00BF00BF37
:1038B0002168083151E8001F344A01EA02002168FA
:1038C000083141E80002002AF2D100BF2020C4F8EC
:1038D000880000202067E06E01281FD10020E066EC
:1038E00000BF00BF216851E8001F01E046E018E07A
:1038F00021F01000226842E800010029F2D100BF47
:103900002068C069C0F3001010B11020216808625F
:10391000B4F85C102046FEF707FF02E02046FFF7F0
:10392000ABF9B9F1000F04D005F0200000287FF4B6
:1039300061AFB4F85E6006B3B4F86800B04223DD4E
:1039400000BF00BF2168083151E8001F21F08050FE
:103950002168083141E80002002AF3D100BF0C4879
:10396000206700BF00BF216851E8001F41F0200020
:10397000226842E800010029F5D105E0206880694D
:1039800040F0080021688861BDE8F88FFEFFFFEF76
:10399000F936000870B50446B4F86060D4F88800C1
:1039A000222857D12068406A85B2F0B22840A16D24
:1039B0000870A06D401CA065B4F85E00401EA4F81D
:1039C0005E00B4F85E0000284AD100BF00BF216845
:1039D00051E8001F21F49070226842E8000100299C
:1039E000F5D100BF00BF00BF2168083151E8001FBA
:1039F00021F001002168083141E80002002AF3D1DA
:103A000000BF2020C4F8880000202067E06E012855
:103A10001CD10020E06600BF00BF216851E8001FF4
:103A200021F01000226842E800010029F5D100BF12
:103A30002068C069C0F3001010B11020216808622E
:103A4000B4F85C102046FEF76FFE09E02046FFF751
:103A500013F905E02068806940F00800216888615A
:103A600070BD00002DE9F05F0446B4F860A0206846
:103A7000C5692068D0F800B02068D0F80890D4F864
:103A8000880022287DD1B4F8688095E02068406ADB
:103A900087B20AF0FF003840A16D0870A06D401C8D
:103AA000A065B4F85E00401EA4F85E002068C569F9
:103AB00005F00700A8B305F0010058B10BF48070C1
:103AC00040B1012021680862D4F88C0040F0010068
:103AD000C4F88C0005F0020058B109F0010040B1B3
:103AE000022021680862D4F88C0040F00400C4F879
:103AF0008C0005F0040058B109F0010040B1042029
:103B000021680862D4F88C0040F00200C4F88C00F0
:103B1000D4F88C0028B12046FEF70AFE0020C4F835
:103B20008C00B4F85E0068BB00BF00BF216851E89C
:103B3000001F21F48070226842E800010029F5D1BD
:103B400000BF00BF00BF2168083151E8001F354A9F
:103B500001EA02002168083141E80002002AF2D19E
:103B600000BF2020C4F8880000202067E06E0128F4
:103B70001FD10020E06600BF00BF216851E8001F90
:103B800001E046E018E021F01000226842E8000160
:103B90000029F2D100BF2068C069C0F3001010B145
:103BA000102021680862B4F85C102046FEF7BCFDC6
:103BB00002E02046FFF760F8B8F1000F04D005F0EE
:103BC000200000287FF462AFB4F85E6006B3B4F85A
:103BD0006800B04223DD00BF00BF2168083151E812
:103BE000001F21F080502168083141E80002002ABE
:103BF000F3D100BF0C48206700BF00BF216851E827
:103C0000001F41F02000226842E800010029F5D1A0
:103C100005E02068806940F0080021688861BDE8FF
:103C2000F09F0000FEFFFFEF953900082DE9FE4FE1
:103C3000044600200290E4492068884200D100E058
:103C400000BF2169A068084361690843E16940EA4F
:103C5000010820680068DD49084040EA0800216842
:103C600008602068406820F44050E16808432168FB
:103C70004860D4F81880D4492068884202D0206A6D
:103C800040EA080820688068D149084040EA0800F6
:103C9000216888602068C06A20F00F00616A0843CC
:103CA0002168C86200BFCB492068884216D1CA4843
:103CB000006800F0030030B1012808D0022804D0C9
:103CC000032808D105E0012507E0022505E00425C9
:103CD00003E0082501E0102500BF8DE0BF49206802
:103CE000884216D1BC48006800F00C0030B10428AE
:103CF00008D0082804D00C2808D105E0002507E0EA
:103D0000022505E0042503E0082501E0102500BF99
:103D100072E0B3492068884216D1AF48006800F0CD
:103D2000300030B1102808D0202804D0302808D125
:103D300005E0002507E0022505E0042503E008254D
:103D400001E0102500BF57E0A6492068884216D13F
:103D5000A148006800F0C00030B1402808D0802899
:103D600004D0C02808D105E0002507E0022505E0C1
:103D7000042503E0082501E0102500BF3CE09A4936
:103D80002068884219D19448006800F4407048B116
:103D9000B0F5807F0AD0B0F5007F05D0B0F5407F48
:103DA00008D105E0002507E0022505E0042503E031
:103DB000082501E0102500BF1EE0834920688842E5
:103DC00019D18548006800F4406048B1B0F5806FB3
:103DD0000AD0B0F5006F05D0B0F5406F08D105E00E
:103DE000002507E0022505E0042503E0082501E0A1
:103DF000102500BF00E0102500BF734920688842ED
:103E00005BD135B1022D08D0042D08D0082D0DD17D
:103E100009E0FDF761FB06460CE0744E0AE0FDF791
:103E20007FFB064606E04FF4004603E00026012033
:103E3000029000BF00BF002E10D06D49606A31F8BB
:103E40001000B6FBF0F9606800EB4000484503D86D
:103E500060680003484502D201200290A8E064494E
:103E6000606A31F810C06246002330461946FCF7FC
:103E7000CFF94FF4807C0022A0FB0C3B01FB0CB17E
:103E800000FB02106168490859185041CDE9001043
:103E9000D4F804C06246002308460199FCF7B8F93B
:103EA0000746B7F5407F05D3B7F5801F02D22068DB
:103EB000C7607DE0012002907AE0E069B0F5004F34
:103EC0003FD1092D17D2DFE805F005090D160F16B1
:103ED00016161300FDF700FB064610E0FDF70EFB7B
:103EE00006460CE0414E0AE0FDF71AFB064606E0E6
:103EF0004FF4004603E000260120029000BF00BFFF
:103F000086B33B49606A31F81000B6FBF0F0400020
:103F1000616800EB5100B0FBF1F7102F0ED3B7F53D
:103F2000803F0BD24FF6F07007EA000AC7F3420059
:103F30004AEA000A2068C0F80CA039E0012002908B
:103F400036E0092D18D2DFE805F005090E17101725
:103F500017171400FDF7C0FA064611E0FDF7CEFA78
:103F600006460DE024E0214E0AE0FDF7D9FA0646A8
:103F700006E04FF4004603E000260120029000BF57
:103F800000BFAEB11A49606A31F81000B6FBF0F01C
:103F9000616800EB5100B0FBF1F7102F06D3B7F5C5
:103FA000803F03D2B8B22168C86001E001200290CE
:103FB0000120A4F86A00A4F8680000202067606768
:103FC0000298BDE8FE8F000000800040F369FFCF3B
:103FD000FFF4FF1100380140881002400044004007
:103FE00000480040004C0040005000400024F40015
:103FF0003856000830B503469965A3F85C20A3F84D
:104000005E200020186700BF9868B0F5805F0AD175
:10401000186920B940F2FF10A3F8600020E0FF20EB
:10402000A3F860001CE0986848B9186918B9FF2027
:10403000A3F8600014E07F20A3F8600010E0986807
:10404000B0F1805F09D1186918B97F20A3F860002A
:1040500006E03F20A3F8600002E00020A3F8600023
:1040600000BF0020C3F88C002220C3F8880000BFE6
:1040700000BF1C68083454E8004F44F001001C687D
:10408000083444E80005002DF3D100BF586EB0F1AC
:10409000005F31D1B3F8680090422DDC9868B0F52C
:1040A000805F04D1186910B92A48186701E02A48CE
:1040B000186700BF002083F8800000BF186960B156
:1040C00000BF00BF1C6854E8004F44F480701D68B6
:1040D00045E80004002CF5D100BF00BF00BF1C68FC
:1040E000083454E8004F44F080501C68083444E819
:1040F0000005002DF3D12BE09868B0F5805F04D166
:10410000186910B91548186701E01548186700BF0D
:10411000002083F8800000BF186960B100BF00BFB5
:104120001C6854E8004F44F490701D6845E8000492
:10413000002CF5D10CE000BF00BF1C6854E8004F14
:1041400044F020001D6845E80004002CF5D100BFB4
:10415000002030BDCD370008653A0008F936000868
:10416000953900082DE9F04104460D46174698465A
:10417000069E6AE0701C002867D0FCF755FFA0EB94
:104180000800B04200D846BB00BF00BF216851E81C
:10419000001F21F4D070226842E800010029F5D107
:1041A00000BF00BF00BF2168083151E8001F21F0A7
:1041B00001002168083141E80002002AF3D100BF64
:1041C0002020C4F88400C4F8880000BF002084F8D0
:1041D000800000BF0320BDE8F0812068006800F087
:1041E000040088B32068C069C0F3C02060B34FF4F6
:1041F00000602168086200BF00BF216851E8001F0D
:1042000021F4D070226842E800010029F5D100BFF6
:1042100000BF00BF2168083151E8001F21F00100F4
:104220002168083141E80002002AF3D100BF2020B4
:1042300044F8840F6060A060843C00BF002084F8D4
:10424000800000BF0320C6E7FFE72068C069284060
:10425000A84201D1012000E00020B8428AD000200D
:10426000B9E7000070B500240F4D1048FEF76AFA58
:1042700000BF03E0641CAC4200D904E00B48FEF729
:1042800058FA2028F6D100BF002403E0641CAC4299
:1042900000D906E0012206490448FEF7B3FC0028D5
:1042A000F4D100BF70BD0000FFFF0100E800002056
:1042B0001200002000BFFEE70FB4054B10B503A9A4
:1042C000044A029800F0F6F810BC5DF814FB0000F8
:1042D000AD4D00080C00002002480068C0F3022029
:1042E000704700000CED00E010B5002804DB0A0761
:1042F000130E054A135406E00A07140E034A00F091
:104300000F031B1FD45410BD00E400E018ED00E0C3
:1043100002E008C8121F08C1002AFAD1704770478E
:10432000002001E001C1121F002AFBD170470000EC
:104330002DE9FF5F82B00021DDE90430020DDDF8D8
:1043400040B0034318D044F61050A2F2FF3242436B
:104350001514119801281FD0A5EB0B00401C5FEA33
:10436000000A4FF000064E4FDFF83891B046504635
:1043700015D5CAF1000413E0119801244AA30128BD
:1043800001D16FEA0B010298119AC0E90031C0E92E
:10439000024206B0BDE8F09FCBF10000DFE7044623
:1043A0000021404A491842EB0450CDE9001012E0C8
:1043B000E00707D032463B4640464946FCF72EF818
:1043C0008046894632463B4610461946FCF726F899
:1043D00006460F466410002CEAD1DDE90401DDE950
:1043E0000023BAF1000F06DAFCF718F842464B46F4
:1043F000FCF714F805E0FCF729FA42464B46FCF7B7
:1044000025FA04460E460022284BFCF7A7FA03D8EB
:104410004FF0FF30014607E00022254B2046314691
:10442000FCF76DF9FCF781FA102409E0002C0ADB97
:104430000A220023FBF7ECFE039B30321A55641E60
:1044400050EA0102F2D1641C039AC4F1110314442E
:10445000119A012A03D0012208430DD10AE0084332
:1044600004D000204FF0110B119072E7A3EB0B0565
:104470006D1E0DE05B4504DD4FF0000205F1010506
:1044800004E003DA4FF00002A5F10105002AECD0A8
:1044900002981199C0E90231C0E9004579E70000AE
:1044A000000014400000F03F300000000000F04326
:1044B0000000E03F2DE9FF4F95B09B468946064638
:1044C00000250FE2252877D100242746F84A01214C
:1044D000059400E0044316F8013F203B01FA03F085
:1044E0001042F7D130782A2811D06FF02F0330789E
:1044F000A0F13002092A16D8059A44F0020402EB12
:10450000820203EB42021044761C0590EFE759F853
:10451000042B0592002A03DA504244F4005405901B
:1045200044F00204761C30782E2816D116F8010FBC
:1045300044F004042A280DD06FF02F023078A0F147
:104540003003092B09D807EB870302EB4303C71895
:10455000761CF3E759F8047B761C30786C280FD072
:1045600006DC4C2817D068280DD06A2814D104E046
:10457000742810D07A280FD10DE044F400140AE01A
:1045800044F4801401E044F440147278824202D171
:1045900004F58014761C761C307866280BD013DC6A
:1045A000582877D009DC002875D04528F6D0462851
:1045B000F4D047281AD19DE118E0632835D064284B
:1045C00079D0652812D195E1702873D008DC67286E
:1045D000F1D069286FD06E280DD06F2806D1B5E0D4
:1045E00073282CD0752875D0782874D05A4617991E
:1045F00090476D1C75E1C4F30250022809D00328CE
:104600000DD0D9F8001004280DD00D6009F104096F
:1046100067E1D9F80010EA17C1E90052F6E7D9F8C6
:1046200000100D80F2E70D70F0E719F8041B8DF80B
:10463000001000208DF80100EA46012003E059F83F
:1046400004AB4FF0FF3061074FF0000102D40DE0E2
:1046500008F101018846B9420FDA8045F8DB1AF803
:1046600008100029F4D108E008F1010188468142D0
:10467000FADB1AF808100029F6D105985B46A0EB82
:10468000080721463846179A00F094FA284400EBB0
:10469000080507E04DE029E10DE01AF8010B5A4644
:1046A00017999047B8F10108F7D25B462146384682
:1046B000179A13E142E00A220092C4F302524FF02B
:1046C000000A022A08D059F804CB032A4FEAEC71F9
:1046D0000AD00DE029E02AE009F1070121F00702E4
:1046E000F2E802C1914609E00FFA8CFC4FEAEC7146
:1046F000042A03D14FFA8CFC4FEAEC71002907DA47
:104700000A460021DCF1000C61EB02012D2202E0DF
:10471000220504D52B228DF80420012203E0E207B4
:1047200001D02022F7E7904659E00A2102E010224A
:104730000DE010214FF0000A00910BE010224FF025
:10474000000A44F004040827009203E008224FF016
:10475000000A0092C4F30252022A05D059F804CB91
:104760000021032A08D009E009F1070121F007021E
:10477000F2E802C1914605E01FFA8CFC042A01D13F
:104780000CF0FF0C4FF00008220728D5702806D047
:10479000009B83F0100353EA0A0305D00EE0402289
:1047A0008DF80420012208E05CEA010206D03022E4
:1047B0008DF804208DF8050002229046009B83F0BE
:1047C000080353EA0A030AD15CEA010201D1620735
:1047D00005D530228DF804204FF001087F1E58289F
:1047E00004D034A003900EA802900DE036A0F9E7A3
:1047F00053466046009AFBF70BFD84460398825CA3
:104800000298401E029002705CEA0100F0D102980A
:1048100006A9081A00F1200A600702D524F48034A2
:1048200000E00127574502DDA7EB0A0000E0002069
:1048300000EB0A01009005984144401A0590E003FE
:1048400006D45B462146179A059800F0B3F9054453
:10485000002706E001A85A46C05D179990476D1CD5
:104860007F1C4745F6DBE0030CD55B462146179AD3
:10487000059800F09FF9054404E030205A46179946
:1048800090476D1C0099481E00900029F5DC08E057
:10489000029802995A460078491C0291179990474C
:1048A0006D1CBAF10001AAF1010AF1DC65E100001A
:1048B00009280100303132333435363738396162F6
:1048C00063646566000000003031323334353637BA
:1048D00038394142434445460000000000F058F991
:1048E0000544761C307800287FF4ECAD19B02846DA
:1048F000BDE8F08F620700D4062709F1070222F015
:10490000070CFCE80223E14603F000485FEA080CCC
:1049100002D00FF2702C0DE05FEA045C02D50FF2BA
:10492000682C07E05FEAC47C02D00FF2602C01E043
:10493000AFF2700C4FF0FF3823F00043CDF850C0B9
:1049400065280CD006DC452809D046281DD047280C
:104950003DD13DE0662818D067287ED138E000219F
:10496000112F01DB112000E0781CCDE9000106A920
:104970000EA8FFF7DDFCDDE90F010E9A039100217F
:10498000009207F1010A04914DE04FF000400097BA
:10499000CDE9011006A90EA8FFF7CAFCDDE90F0258
:1049A00003920E9B11990022DDF80CA00093049253
:1049B00011B9791C00EB010AB7EB0A0004D4C0F16D
:1049C000FF3007F1010A0490AAEB0700019044E0D0
:1049D000012F00DA01270021112F01DD112000E055
:1049E0003846CDE9000106A90EA8FFF7A1FCDDE9D4
:1049F0000F010E9A0391002104910092BA462107FB
:104A00000CD40399514500DA8A46BAF1010F05DD4D
:104A1000009AAAF10101515C302908D0B84202DAAB
:104A200010F1040F06DA0121CDE9011015E0AAF119
:104A30000101E9E7002805DC049901440491AAEB8F
:104A4000000102E0411C514500DD8A460499401AEC
:104A5000401C01904FF000400290200704D40198C0
:104A6000504501DBCDF8048000208DF84F000298FE
:104A70000DF14F07B0F1004F25D02B200E9002987A
:104A80004FF0020800280CDA404202902D200E90D0
:104A900007E00A210298FBF75DFD3031029007F82C
:104AA000011DB8F10001A8F10108F2DC029800280C
:104AB000EFD1791E0E980870307800F0200040F099
:104AC000450007F8020D12A8C01B00F10708149852
:104AD000007800B1012000EB0A01019801EBE071C0
:104AE00005984144401A401E0590E00306D45B46F9
:104AF0002146179A059800F05DF80544149800784F
:104B000018B15A46179990476D1CE00324D55B46AF
:104B10002146179A059800F04DF805441CE00498CA
:104B2000002807DBDDE90301884203DD0098405CD3
:104B3000179901E0179930205A469047049805F1DB
:104B40000105401C04900198401E019004D12E20C4
:104B50005A46179990476D1CBAF10001AAF1010A53
:104B6000DDDC05E017F8010B5A46179990476D1CDC
:104B7000B8F10001A8F10108F4DC5B462146179A60
:104B80000598ABE62D0000002B000000200000007F
:104B90002DE9F041044600251E461746880404D43A
:104BA00005E039462020B0476D1C641EF9D5284623
:104BB000BDE8F0812DE9F041044600251E469046EF
:104BC000C80301D5302700E02027880404D505E07C
:104BD00041463846B0476D1C641EF9D52846BDE8ED
:104BE000F0810000B5EEC00AF1EE10FA06D3DFED59
:104BF000120AB4EEE00AF1EE10FA01DD00201AE02C
:104C0000DFED0E0A70EE600A9FED0D1A60EE810A6C
:104C1000B2EE021AC0EE811AFDEEE10A10EE901A11
:104C200001F2DC5188B2B0F5FA7F03DB40F6C41123
:104C3000884200DD00207047000034430000B44289
:104C40000000C84230B52DED048B81B004460D46FE
:104C500000BF00BF3348006E40F400503149086681
:104C60000846006E00F40050009000BF00BF00BF77
:104C700000BF00BF0846C06C40F00400C86408468E
:104C8000C06C00F00400009000BF00BF00BF00BF78
:104C900000BF0846C06C40F00400C8640846C06C01
:104CA00000F00400009000BF00BF00BF1E481F4975
:104CB00008600846456000218160C460016181612F
:104CC0004161FDF700FC702019490860601CFBF78A
:104CD00017FC41EC190B9FED170B53EC102BFBF756
:104CE0009DFB41EC180BFBF71CFC114948600020B0
:104CF0008860C86008614861886100220B48FDF740
:104D00002AFB04220A490948FDF725FB0021074830
:104D1000FDF754FC04210548FDF750FC01B0BDEC43
:104D2000048B30BD001002400034014078010020A7
:104D3000C40100209A9999999999993F10B5044610
:104D40000420FDF7DAFA0148046010BD08000020D5
:104D500010B504464FF47A7104FB01F000F002F83C
:104D600010BD000070B5034600224FF0E0267569C3
:104D70000D4E366803FB06F44FF0E026B16910E0F3
:104D80004FF0E026B06988420BD0884202D20E1A5A
:104D9000324402E02E1A0E4432440146A24200D3AD
:104DA00000E0EDE700BF70BD0800002000BF054A2D
:104DB000126802F04002002AF9D0C2B2014B0C3353
:104DC0001A6070471C38014000B587B000BF00BFB3
:104DD0002948C06C40F010002749C8640846C06CE0
:104DE00000F01000019000BF00BF00BF00BF00BF77
:104DF0000846C06C40F01000C8640846C06C00F063
:104E00001000019000BF00BF00BF00BF00BF0846F8
:104E1000C06C40F01000C8640846C06C00F0100080
:104E2000019000BF00BF00BF8814029000200390D3
:104E3000012004900220059002A91048FCF702F816
:104E40004FF40050029000200390012004900220B3
:104E5000059002A90948FBF7F5FF4FF48040029046
:104E600000200390012004900220059002A903482D
:104E7000FBF7E8FF07B000BD00100240001000483B
:104E80002DE9F04104460D4616461F462A2000F043
:104E900005FA201200F012FAE0B200F00FFA301218
:104EA00000F00CFAF0B200F009FA2B2000F0F6F94D
:104EB000281200F003FAE8B200F000FA381200F00D
:104EC000FDF9F8B200F0FAF92C2000F0E7F9BDE89E
:104ED000F0810000F8B505460020009028128DF8FA
:104EE0000000E8B28DF80100EF231A4600210846C1
:104EF000FFF7C6FF00240DE09DF80000104901F8FF
:104F000014009DF80100012101EB44010C4A5054AA
:104F1000601C84B2B4F5B45FEEDB00BF0122102147
:104F20000848FCF775F800BF002606E04FF434513E
:104F3000034800F07DF9701C86B20A2EF6DBF8BD3E
:104F4000E00100200004004800B587B0142102A849
:104F5000FBF796F900BF00BF4948C06C40F008005D
:104F60004749C8640846C06C00F00800019000BFC3
:104F700000BF00BF00BF00BF0846C06C40F0080083
:104F8000C8640846C06C00F00800019000BF00BF74
:104F900000BF00BF00BF0846C06C40F00200C864FC
:104FA0000846C06C00F00200019000BF00BF00BFC7
:104FB00000BF00BF0846C06C40F00800C864084647
:104FC000C06C00F00800019000BF00BF00BF881552
:104FD000029001200390022005900120049002A974
:104FE0002848FBF72FFF4FF4007002900120039038
:104FF000022005900120049002A92248FBF722FF1D
:1050000010200290012003900220059001200490BE
:1050100002A91D48FBF716FF4FF4806002900120A3
:105020000390022005900120049002A91548FBF787
:1050300009FF00BF00224FF480611248FBF7E8FF30
:1050400000BF00BF00224FF480710E48FBF7E0FF65
:1050500000BF00BF00224FF400710A48FBF7D8FFE1
:1050600000BF7820FFF774FE00BF012251020548FF
:10507000FBF7CEFF00BF00F0FBF907B000BD00005A
:1050800000100240000C00480004004810B5FFF773
:105090005BFF7820FFF75CFE112000F0FFF878201E
:1050A000FFF756FE362000F0F9F8002000F006F970
:1050B0003A2000F0F3F8652000F000F9B22000F08B
:1050C000EDF80C2000F0FAF80C2000F0F7F80020C2
:1050D00000F0F4F8332000F0F1F8332000F0EEF89F
:1050E000B72000F0DBF8722000F0E8F8BB2000F0F9
:1050F000D5F83D2000F0E2F8C02000F0CFF82C20D9
:1051000000F0DCF8C22000F0C9F8012000F0D6F869
:10511000C32000F0C3F8192000F0D0F8C42000F03C
:10512000BDF8202000F0CAF8C62000F0B7F80F2024
:1051300000F0C4F8D02000F0B1F8A42000F0BEF8D0
:10514000A12000F0BBF8E02000F0A8F8D02000F08B
:10515000B5F8042000F0B2F80D2000F0AFF81120EF
:1051600000F0ACF8132000F0A9F82B2000F0A6F80E
:105170003F2000F0A3F8542000F0A0F84C2000F0ED
:105180009DF8182000F09AF80D2000F097F80B20F9
:1051900000F094F81F2000F091F8232000F08EF822
:1051A000E12000F07BF8D02000F088F8042000F027
:1051B00085F80C2000F082F8112000F07FF8132011
:1051C00000F07CF82C2000F079F83F2000F076F811
:1051D000442000F073F8512000F070F82F2000F008
:1051E0006DF81F2000F06AF81F2000F067F82020FB
:1051F00000F064F8232000F061F8212000F04EF860
:10520000292000F04BF8EF231A4600210846FFF74B
:1052100037FE4FF6FF70FFF75DFE00BF012211025F
:105220000248FBF7F5FE00BF10BD0000000C00486F
:105230002DE9F04105460E4600BF00224FF4806183
:105240001548FBF7E5FE00BF4FF6FF70B6FBF0F721
:10525000002416E0BC420CD14FF6FF70B6FBF0F113
:1052600000FB1168C4EB04414819414600F050F9B5
:1052700006E0C4EB044148194FF6FF7100F048F90D
:10528000641CBC42E6D900BF012291020248FBF730
:10529000BFFE00BFBDE8F081000C004801B500BFB3
:1052A000002210210448FBF7B3FE00BF012168462D
:1052B000FFF7BEFF08BD00000004004801B500BFB5
:1052C000012210210448FBF7A3FE00BF012168461C
:1052D000FFF7AEFF08BD00000004004808B500BF9E
:1052E00000BFFBF7B3FE0820042302221146009002
:1052F000552000F01BF9AA20FFF720FD4FF4E13004
:1053000000F072F9FFF760FDFFF7C0FEA92144F637
:105310001F60FFF797FC11A0FEF7CEFF16A0FEF767
:10532000CBFF1CA0FEF7C8FF9FED210A012000F073
:105330007BF8002410E00A20FFF70AFD00F03CF89B
:1053400004464CB11B48007800EE100AB8EE400A43
:10535000012000F069F80024EDE700004B455930CA
:1053600020D1A1D4F1BFD8D6C6B5C4B6E6BBFABD2C
:10537000D3BFDA0D0A0000004B45593120B6E6BB19
:10538000FAD0FDD7AABDC7B6C82B3435A1E30D0AA4
:10539000000000004B45593220B6E6BBFAD0FDD7DD
:1053A000AABDC7B6C82D3435A1E30D0A0000000020
:1053B0000000B4420200002038B51048008800F414
:1053C0000040C8B10D4804786A460DA10E48FAF7AE
:1053D00063FF01280DD10D49009808700846017837
:1053E0000BA0FEF769FFC8210748FAF749FF012023
:1053F00038BD0020014908800020F9E71000002096
:10540000583D25640000000020000020020000201C
:10541000457874726163746564206E756D6265723F
:105420003A2025640A00000000B50346B0EE402A89
:10543000012B02D0022B14D109E0B0EE420AFFF793
:10544000D1FB024612B10948006842630AE0B0EE9F
:10545000420AFFF7C7FB024612B1044800688263A4
:1054600000E000BF00BF002000BD00007801002068
:1054700008B500BF00BF1B48006E40F480501949BA
:1054800008660846006E00F48050009000BF00BF20
:1054900000BF1548154908604FF48270486000212C
:1054A000124881604FF4E061C16002210161012175
:1054B0004161490281610821C161002101624162AB
:1054C00081620A21C162FCF72BFB08480068006872
:1054D00040F04000054909680860FF2000F008F826
:1054E00008BD00000010024000300140E02E002006
:1054F00001B582B04FF47A70012301AA02A900908D
:105500000248FCF704FD9DF804000EBDE02E0020CB
:1055100070B504460D464FF0FF332A462146024837
:10552000FCF7E4FB70BD0000E02E00202DE9F04305
:1055300095B004460D4617469846DDF87090002653
:10554000382107A8FAF79CFE142102A8FAF798FE62
:1055500000BF2348806D40F080502149886508468F
:10556000806D00F08050019000BF00BF0020FBF76D
:105570000FFE012007900004089002200E900321E6
:105580000F9111941095CDF84880CDF84C90149758
:1055900007A8FCF711F806461EB1012015B0BDE8BA
:1055A000F0830F20029003200390002004900590C8
:1055B0000690042102A8FBF777FE06460EB10120F3
:1055C000ECE7FBF72BFD41F20101884205D10548CC
:1055D000006840F48070034908600020DEE70000A6
:1055E000001002400020024010B5044609480A4954
:1055F00008600846446000218160C16001618161EA
:105600000C214161FDF766FA012204490248FDF7C9
:10561000F9FA10BD00380140E80000201200002017
:105620000000000000000000010203040607080952
:105630000000000001020304010002000400060053
:1056400008000A000C00100020004000800000014B
:10565000DDDDDDDDDCBBBBDDDDDDDDDDDDDDDDDDBF
:1056600098888888888888887777777777888888FF
:105670008555555666666666666666666668888897
:105680008333333222222222222222222228888D90
:10569000B056000800000020200000001043000861
:1056A000D0560008200000202833000020430008C6
:1056B000000000000024F4000000000000000000D2
:1056C00000000000000000001000000001000000C9
:04000005080001D915
:00000001FF
